:100000000C945C000C946E000C946E000C946E00CA
:100010000C946E000C946E000C946E000C946E00A8
:100020000C946E000C946E000C946E000C946E0098
:100030000C946E000C946E000C946E000C946E0088
:100040000C94E2000C946E000C946E000C946E0004
:100050000C946E000C946E000C946E000C946E0068
:100060000C946E000C946E00000000002400270029
:100070002A0000000000250028002B0004040404CE
:100080000404040402020202020203030303030342
:10009000010204081020408001020408102001021F
:1000A00004081020000000080002010000030407FB
:1000B000000000000000000011241FBECFEFD8E0B8
:1000C000DEBFCDBF21E0A0E0B1E001C01D92AB30AA
:1000D000B207E1F70E942C010C9427020C94000057
:1000E00090E0FC01EC55FF4F2491FC01E057FF4FDD
:1000F0003491FC01E458FF4FE491EE2309F43CC035
:10010000222339F1233091F038F42130A9F0223044
:1001100001F584B58F7D12C0273091F02830A1F011
:100120002430B9F4809180008F7D03C080918000DD
:100130008F77809380000DC084B58F7784BD09C010
:100140008091B0008F7703C08091B0008F7D809345
:10015000B000F0E0EE0FFF1FEE58FF4FA591B491F5
:100160009FB7F894611104C08C913095382302C078
:10017000EC913E2B3C939FBF08953FB7F89480913C
:10018000070190910801A0910901B0910A0126B5DB
:10019000A89B05C02F3F19F00196A11DB11D3FBFBF
:1001A000BA2FA92F982F8827820F911DA11DB11D4D
:1001B000BC01CD0142E0660F771F881F991F4A9549
:1001C000D1F708951F920F920FB60F9211242F931B
:1001D0003F938F939F93AF93BF938091030190912F
:1001E0000401A0910501B09106013091020123E0C4
:1001F000230F2D3720F40196A11DB11D05C026E85F
:10020000230F0296A11DB11D2093020180930301CB
:1002100090930401A0930501B0930601809107011A
:1002200090910801A0910901B0910A010196A11DC8
:10023000B11D8093070190930801A0930901B09329
:100240000A01BF91AF919F918F913F912F910F9094
:100250000FBE0F901F901895789484B5826084BD6E
:1002600084B5816084BD85B5826085BD85B58160BA
:1002700085BD80916E00816080936E001092810038
:1002800080918100826080938100809181008160F3
:1002900080938100809180008160809380008091B4
:1002A000B10084608093B1008091B0008160809340
:1002B000B00080917A00846080937A0080917A0007
:1002C000826080937A0080917A00816080937A00C6
:1002D00080917A00806880937A001092C10066E96C
:1002E000862E60E0962EC2E8D0E00AEA10E070E0C8
:1002F000A72E70E0B72E10920101109200012091FC
:100300000001309101012F3F310511F00CF098C030
:10031000F4014491FE018491882399F090E0880FC4
:10032000991FFC01E859FF4FA591B491FC01EE58CB
:10033000FF4F859194919FB7F8948C91842B8C9367
:100340009FBF2115310511F460E004C02F3F310536
:1003500029F461E086E00E94700042C0F8018491B7
:100360008330F9F048F48130B9F08230A1F584B5DA
:10037000806284BD28BD34C08730E9F0883019F12F
:10038000843049F5809180008062809380003093B2
:100390008B0020938A0024C084B5806884BD27BD6B
:1003A0001FC0809180008068809380003093890016
:1003B0002093880015C08091B00080688093B000C1
:1003C0002093B3000DC08091B00080628093B00094
:1003D0002093B40005C0203831050CF0BACFB4CF5B
:1003E0000E94BD006B017C0184E1482E512C612CE0
:1003F000712C0E94BD00DC01CB018C199D09AE0956
:10040000BF09883E9340A105B10598F3F1E04F1A6A
:1004100051086108710828EEC20E23E0D21EE11CCB
:10042000F11C411451046104710419F78091000119
:1004300090910101019690930101809300015FCF9B
:10044000A114B10409F457CF0E94000054CFF894CE
:02045000FFCFDC
:00000001FF
