:100000000C9461000C9473000C9473000C947300B6
:100010000C9473000C9473000C9473000C94730094
:100020000C9473000C9473000C9473000C94730084
:100030000C9473000C9473000C9473000C94730074
:100040000C942E010C9473000C9473000C947300A8
:100050000C9473000C9473000C9473000C94730054
:100060000C9473000C947300000000002300260021
:10007000290000000000240027002A0000000000E2
:10008000250028002B0004040404040404040202D4
:100090000202020203030303030301020408102007
:1000A0004080010204081020010204081020000012
:1000B0000008000201000003040700000000000027
:1000C000000011241FBECFEFD8E0DEBFCDBF21E07E
:1000D000A0E0B1E001C01D92AB30B207E1F70E9491
:1000E00078010C9453020C940000833081F028F4C2
:1000F000813099F08230A1F008958730A9F08830DE
:10010000B9F08430D1F4809180008F7D03C080915C
:1001100080008F7780938000089584B58F7702C028
:1001200084B58F7D84BD08958091B0008F7703C022
:100130008091B0008F7D8093B00008951F93CF937E
:10014000DF93282F30E0F901E255FF4F8491F90148
:10015000E656FF4FD491F901EA57FF4FC491CC23E3
:10016000C1F0162F81110E947500EC2FF0E0EE0F08
:10017000FF1FE458FF4FA591B4919FB7F894111158
:1001800004C08C91D095D82302C0EC91DE2BDC9377
:100190009FBFDF91CF911F910895CF93DF9390E0A0
:1001A000FC01E656FF4F2491FC01EA57FF4F849172
:1001B000882361F190E0880F991FFC01EE58FF4FF2
:1001C000C591D491FC01E458FF4FA591B491611100
:1001D00009C09FB7F8948881209582238883EC9189
:1001E0002E230BC0623061F49FB7F8948881322FC0
:1001F000309583238883EC912E2B2C939FBF06C0D0
:100200008FB7F894E8812E2B28838FBFDF91CF9191
:1002100008953FB7F8948091070190910801A0914B
:100220000901B0910A0126B5A89B05C02F3F19F01E
:100230000196A11DB11D3FBFBA2FA92F982F882766
:10024000820F911DA11DB11DBC01CD0142E0660FC1
:10025000771F881F991F4A95D1F708951F920F9213
:100260000FB60F9211242F933F938F939F93AF93C9
:10027000BF938091030190910401A0910501B09179
:1002800006013091020123E0230F2D3720F401965F
:10029000A11DB11D05C026E8230F0296A11DB11DA9
:1002A000209302018093030190930401A093050120
:1002B000B09306018091070190910801A091090176
:1002C000B0910A010196A11DB11D80930701909381
:1002D0000801A0930901B0930A01BF91AF919F91CA
:1002E0008F913F912F910F900FBE0F901F901895F7
:1002F000789484B5826084BD84B5816084BD85B501
:10030000826085BD85B5816085BD80916E0081600C
:1003100080936E00109281008091810082608093B2
:1003200081008091810081608093810080918000B4
:100330008160809380008091B10084608093B100DF
:100340008091B00081608093B00080917A008460D9
:1003500080937A0080917A00826080937A00809105
:100360007A00816080937A0080917A00806880931F
:100370007A001092C10061E084E00E94CD0061E04B
:1003800082E00E94CD0061E083E00E94CD0062E047
:1003900089E00E94CD0027EB222E20E0322E33EAA6
:1003A000832E30E0932E0FE810E040E0A42E40E0D2
:1003B000B42EF1018491F401D491F801C491CC23BD
:1003C00071F081110E947500EC2FF0E0EE0FFF1F1D
:1003D000E859FF4FA591B4918C918D23A9F5C09157
:1003E0000001D09101012196D0930101C093000139
:1003F0000E9409012B013C0188ECC82ED12CE12C74
:10040000F12C0E940901DC01CB0184199509A60990
:10041000B709883E9340A105B10598F3F1E0CF1AE2
:10042000D108E108F10828EE420E23E0521E611CBB
:10043000711CC114D104E104F10419F7249721F4CB
:100440001092010110920001809100019091010130
:100450008130910531F461E084E00E949E0060E00B
:1004600008C08230910551F460E084E00E949E0053
:1004700061E083E00E949E0060E00BC0039761F49E
:1004800060E084E00E949E0060E083E00E949E00A5
:1004900061E082E00E949E00A114B10409F489CFBA
:0A04A0000E94000086CFF894FFCF01
:107E0000112484B714BE81FFF0D085E080938100F7
:107E100082E08093C00088E18093C10086E0809377
:107E2000C20080E18093C4008EE0C9D0259A86E02C
:107E300020E33CEF91E0309385002093840096BBD3
:107E4000B09BFECF1D9AA8958150A9F7CC24DD24C4
:107E500088248394B5E0AB2EA1E19A2EF3E0BF2EE7
:107E6000A2D0813461F49FD0082FAFD0023811F036
:107E7000013811F484E001C083E08DD089C08234E0
:107E800011F484E103C0853419F485E0A6D080C0E4
:107E9000853579F488D0E82EFF2485D0082F10E0AE
:107EA000102F00270E291F29000F111F8ED06801E7
:107EB0006FC0863521F484E090D080E0DECF843638
:107EC00009F040C070D06FD0082F6DD080E0C81688
:107ED00080E7D80618F4F601B7BEE895C0E0D1E017
:107EE00062D089930C17E1F7F0E0CF16F0E7DF06D8
:107EF00018F0F601B7BEE89568D007B600FCFDCFD4
:107F0000A601A0E0B1E02C9130E011968C91119780
:107F100090E0982F8827822B932B1296FA010C0160
:107F200087BEE89511244E5F5F4FF1E0A038BF0790
:107F300051F7F601A7BEE89507B600FCFDCF97BE46
:107F4000E89526C08437B1F42ED02DD0F82E2BD052
:107F50003CD0F601EF2C8F010F5F1F4F84911BD097
:107F6000EA94F801C1F70894C11CD11CFA94CF0C13
:107F7000D11C0EC0853739F428D08EE10CD085E9AC
:107F80000AD08FE07ACF813511F488E018D01DD067
:107F900080E101D065CF982F8091C00085FFFCCF94
:107FA0009093C60008958091C00087FFFCCF809118
:107FB000C00084FD01C0A8958091C6000895E0E648
:107FC000F0E098E1908380830895EDDF803219F02E
:107FD00088E0F5DFFFCF84E1DECF1F93182FE3DFCA
:107FE0001150E9F7F2DF1F91089580E0E8DFEE27F6
:047FF000FF270994CA
:027FFE00040479
:0400000300007E007B
:00000001FF
