:100000000C945C000C946E000C946E000C946E00CA
:100010000C946E000C946E000C946E000C946E00A8
:100020000C946E000C946E000C946E000C946E0098
:100030000C946E000C946E000C946E000C946E0088
:100040000C94DE000C946E000C946E000C946E0008
:100050000C946E000C946E000C946E000C946E0068
:100060000C946E000C946E00000000002400270029
:100070002A0000000000250028002B0004040404CE
:100080000404040402020202020203030303030342
:10009000010204081020408001020408102001021F
:1000A00004081020000000080002010000030407FB
:1000B000000000000000000011241FBECFEFD8E0B8
:1000C000DEBFCDBF21E0A0E0B1E001C01D92A930AC
:1000D000B207E1F70E9428010C9423020C9400005F
:1000E000EAEAF0E09491E6E9F0E02491E2E8F0E059
:1000F000E491EE2309F43CC0992339F1933091F057
:1001000038F49130A9F0923001F594B59F7D12C07A
:10011000973091F09830A1F09430B9F4909180002C
:100120009F7D03C0909180009F77909380000DC0C9
:1001300094B59F7794BD09C09091B0009F7703C09C
:100140009091B0009F7D9093B000F0E0EE0FFF1F04
:10015000EE58FF4FA591B4919FB7F894811104C058
:100160008C912095282302C0EC912E2B2C939FBFBD
:1001700008953FB7F8948091050190910601A091F0
:100180000701B091080126B5A89B05C02F3F19F0C3
:100190000196A11DB11D3FBFBA2FA92F982F882707
:1001A000820F911DA11DB11DBC01CD0142E0660F62
:1001B000771F881F991F4A95D1F708951F920F92B4
:1001C0000FB60F9211242F933F938F939F93AF936A
:1001D000BF938091010190910201A0910301B09120
:1001E00004013091000123E0230F2D3720F4019604
:1001F000A11DB11D05C026E8230F0296A11DB11D4A
:10020000209300018093010190930201A0930301C8
:10021000B09304018091050190910601A09107011E
:10022000B09108010196A11DB11D80930501909325
:100230000601A0930701B0930801BF91AF919F9170
:100240008F913F912F910F900FBE0F901F90189597
:10025000789484B5826084BD84B5816084BD85B5A1
:10026000826085BD85B5816085BD80916E008160AD
:1002700080936E0010928100809181008260809353
:100280008100809181008160809381008091800055
:100290008160809380008091B10084608093B10080
:1002A0008091B00081608093B00080917A0084607A
:1002B00080937A0080917A00826080937A008091A6
:1002C0007A00816080937A0080917A0080688093C0
:1002D0007A001092C10076E9872E70E0972EC2E86E
:1002E000D0E00AEA10E0E0E0AE2EE0E0BE2EF0E45E
:1002F0003F2E30927C0080917A00806480937A0057
:1003000080917A0086FDFCCF809178002091790061
:1003100090E0922B97FD03969595879595958795F7
:10032000F4014491FE012491222399F030E0220F40
:10033000331FF901E859FF4FA591B491F901EE5827
:10034000FF4F259134913FB7F8942C91242B2C9397
:100350003FBF009711F480E004C08F3F910521F466
:1003600081E00E94700042C0F80124912330F9F02E
:1003700048F42130B9F02230A1F594B5906294BDD3
:1003800088BD34C02730E9F0283019F1243049F510
:100390002091800020622093800090938B008093B6
:1003A0008A0024C094B5906894BD87BD1FC0209179
:1003B00080002068209380009093890080938800BB
:1003C00015C09091B00090689093B0008093B300F6
:1003D0000DC09091B00090629093B0008093B400F3
:1003E00005C0803891050CF0BBCFB5CF0E94B90095
:1003F0002B013C0184E1C82ED12CE12CF12C0E9470
:10040000B900DC01CB0184199509A609B709883E1A
:100410009340A105B10598F3F1E0CF1AD108E108A6
:10042000F10828EE420E23E0521E611C711CC1141B
:10043000D104E104F10419F7A114B10409F459CF6E
:0A0440000E94000056CFF894FFCF91
:107E0000112484B714BE81FFF0D085E080938100F7
:107E100082E08093C00088E18093C10086E0809377
:107E2000C20080E18093C4008EE0C9D0259A86E02C
:107E300020E33CEF91E0309385002093840096BBD3
:107E4000B09BFECF1D9AA8958150A9F7CC24DD24C4
:107E500088248394B5E0AB2EA1E19A2EF3E0BF2EE7
:107E6000A2D0813461F49FD0082FAFD0023811F036
:107E7000013811F484E001C083E08DD089C08234E0
:107E800011F484E103C0853419F485E0A6D080C0E4
:107E9000853579F488D0E82EFF2485D0082F10E0AE
:107EA000102F00270E291F29000F111F8ED06801E7
:107EB0006FC0863521F484E090D080E0DECF843638
:107EC00009F040C070D06FD0082F6DD080E0C81688
:107ED00080E7D80618F4F601B7BEE895C0E0D1E017
:107EE00062D089930C17E1F7F0E0CF16F0E7DF06D8
:107EF00018F0F601B7BEE89568D007B600FCFDCFD4
:107F0000A601A0E0B1E02C9130E011968C91119780
:107F100090E0982F8827822B932B1296FA010C0160
:107F200087BEE89511244E5F5F4FF1E0A038BF0790
:107F300051F7F601A7BEE89507B600FCFDCF97BE46
:107F4000E89526C08437B1F42ED02DD0F82E2BD052
:107F50003CD0F601EF2C8F010F5F1F4F84911BD097
:107F6000EA94F801C1F70894C11CD11CFA94CF0C13
:107F7000D11C0EC0853739F428D08EE10CD085E9AC
:107F80000AD08FE07ACF813511F488E018D01DD067
:107F900080E101D065CF982F8091C00085FFFCCF94
:107FA0009093C60008958091C00087FFFCCF809118
:107FB000C00084FD01C0A8958091C6000895E0E648
:107FC000F0E098E1908380830895EDDF803219F02E
:107FD00088E0F5DFFFCF84E1DECF1F93182FE3DFCA
:107FE0001150E9F7F2DF1F91089580E0E8DFEE27F6
:047FF000FF270994CA
:027FFE00040479
:0400000300007E007B
:00000001FF
