:100000000C9461000C9473000C9473000C947300B6
:100010000C9473000C9473000C9473000C94730094
:100020000C9473000C9473000C9473000C94730084
:100030000C9473000C9473000C9473000C94730074
:100040000C94CD000C9473000C9473000C9473000A
:100050000C9473000C9473000C9473000C94730054
:100060000C9473000C94730000000000240027001F
:100070002A000000000023002600290000000000E4
:10008000250028002B0004040404040404040202D4
:100090000202020203030303030301020408102007
:1000A0004080010204081020010204081020000012
:1000B0000008000201000003040700000000000027
:1000C000000011241FBECFEFD8E0DEBFCDBF21E07E
:1000D000A0E0B1E001C01D92A930B207E1F70E9493
:1000E00017010C94C5010C940000833081F028F4B2
:1000F000813099F08230A1F008958730A9F08830DE
:10010000B9F08430D1F4809180008F7D03C080915C
:1001100080008F7780938000089584B58F7702C028
:1001200084B58F7D84BD08958091B0008F7703C022
:100130008091B0008F7D8093B00008951F93CF937E
:10014000DF93282F30E0F901E255FF4F8491F90148
:10015000E656FF4FD491F901EA57FF4FC491CC23E3
:10016000C1F0162F81110E947500EC2FF0E0EE0F08
:10017000FF1FE458FF4FA591B4919FB7F894111158
:1001800004C08C91D095D82302C0EC91DE2BDC9377
:100190009FBFDF91CF911F9108951F920F920FB6CD
:1001A0000F9211242F933F938F939F93AF93BF93FD
:1001B0008091050190910601A0910701B09108017D
:1001C0003091040123E0230F2D3720F40196A11D67
:1001D000B11D05C026E8230F0296A11DB11D209375
:1001E00004018093050190930601A0930701B09349
:1001F00008018091000190910101A0910201B0914C
:1002000003010196A11DB11D80930001909301018E
:10021000A0930201B0930301BF91AF919F918F9181
:100220003F912F910F900FBE0F901F9018957894CB
:1002300084B5826084BD84B5816084BD85B58260EB
:1002400085BD85B5816085BD80916E00816080939C
:100250006E00109281008091810082608093810005
:100260008091810081608093810080918000816015
:10027000809380008091B10084608093B100809170
:10028000B00081608093B00080917A008460809398
:100290007A0080917A00826080937A0080917A005F
:1002A000816080937A0080917A00806880937A00E0
:1002B0001092C100EEE9F0E02491EAE8F0E08491C8
:1002C000882399F090E0880F991FFC01E859FF4FAF
:1002D000A591B491FC01E458FF4F859194918FB79B
:1002E000F894EC91E22BEC938FBFC3EAD0E0FE01CF
:1002F00044910FE810E0F80184918823C9F090E060
:10030000880F991FFC01E859FF4F25913491FC019A
:10031000E458FF4FA591B4915FB7F894F90190812B
:10032000842F8095982390838C91842B8C935FBF2E
:1003300097EBE92E90E0F92E20E0C22E20E0D22E9D
:10034000F7018491FE01A490F801B490BB2071F0F4
:1003500081110E947500EB2DF0E0EE0FFF1FEE58AB
:10036000FF4FA591B4918C918A2129F461E084E03A
:100370000E949E00E5CF60E084E00E949E00C114D0
:0E038000D104F1F20E940000DBCFF894FFCF11
:107E0000112484B714BE81FFF0D085E080938100F7
:107E100082E08093C00088E18093C10086E0809377
:107E2000C20080E18093C4008EE0C9D0259A86E02C
:107E300020E33CEF91E0309385002093840096BBD3
:107E4000B09BFECF1D9AA8958150A9F7CC24DD24C4
:107E500088248394B5E0AB2EA1E19A2EF3E0BF2EE7
:107E6000A2D0813461F49FD0082FAFD0023811F036
:107E7000013811F484E001C083E08DD089C08234E0
:107E800011F484E103C0853419F485E0A6D080C0E4
:107E9000853579F488D0E82EFF2485D0082F10E0AE
:107EA000102F00270E291F29000F111F8ED06801E7
:107EB0006FC0863521F484E090D080E0DECF843638
:107EC00009F040C070D06FD0082F6DD080E0C81688
:107ED00080E7D80618F4F601B7BEE895C0E0D1E017
:107EE00062D089930C17E1F7F0E0CF16F0E7DF06D8
:107EF00018F0F601B7BEE89568D007B600FCFDCFD4
:107F0000A601A0E0B1E02C9130E011968C91119780
:107F100090E0982F8827822B932B1296FA010C0160
:107F200087BEE89511244E5F5F4FF1E0A038BF0790
:107F300051F7F601A7BEE89507B600FCFDCF97BE46
:107F4000E89526C08437B1F42ED02DD0F82E2BD052
:107F50003CD0F601EF2C8F010F5F1F4F84911BD097
:107F6000EA94F801C1F70894C11CD11CFA94CF0C13
:107F7000D11C0EC0853739F428D08EE10CD085E9AC
:107F80000AD08FE07ACF813511F488E018D01DD067
:107F900080E101D065CF982F8091C00085FFFCCF94
:107FA0009093C60008958091C00087FFFCCF809118
:107FB000C00084FD01C0A8958091C6000895E0E648
:107FC000F0E098E1908380830895EDDF803219F02E
:107FD00088E0F5DFFFCF84E1DECF1F93182FE3DFCA
:107FE0001150E9F7F2DF1F91089580E0E8DFEE27F6
:047FF000FF270994CA
:027FFE00040479
:0400000300007E007B
:00000001FF
